{
  "address": "0xea5Cd6E59D744c9CaFa6Bf7ac150b182e77d40BC",
  "abi": [
    {
      "inputs": [
        {
          "internalType": "uint256",
          "name": "_claimPeriodEnds",
          "type": "uint256"
        },
        {
          "internalType": "address",
          "name": "_codeToken",
          "type": "address"
        }
      ],
      "stateMutability": "nonpayable",
      "type": "constructor"
    },
    {
      "inputs": [],
      "name": "Address0Error",
      "type": "error"
    },
    {
      "inputs": [],
      "name": "AlreadyClaimed",
      "type": "error"
    },
    {
      "inputs": [],
      "name": "ClaimEnded",
      "type": "error"
    },
    {
      "inputs": [],
      "name": "InitError",
      "type": "error"
    },
    {
      "inputs": [],
      "name": "InvalidProof",
      "type": "error"
    },
    {
      "anonymous": false,
      "inputs": [
        {
          "indexed": true,
          "internalType": "address",
          "name": "_claimant",
          "type": "address"
        },
        {
          "indexed": false,
          "internalType": "uint256",
          "name": "_amount",
          "type": "uint256"
        }
      ],
      "name": "Claim",
      "type": "event"
    },
    {
      "anonymous": false,
      "inputs": [
        {
          "indexed": false,
          "internalType": "bytes32",
          "name": "_merkleRoot",
          "type": "bytes32"
        }
      ],
      "name": "MerkleRootChanged",
      "type": "event"
    },
    {
      "anonymous": false,
      "inputs": [
        {
          "indexed": true,
          "internalType": "address",
          "name": "previousOwner",
          "type": "address"
        },
        {
          "indexed": true,
          "internalType": "address",
          "name": "newOwner",
          "type": "address"
        }
      ],
      "name": "OwnershipTransferred",
      "type": "event"
    },
    {
      "anonymous": false,
      "inputs": [
        {
          "indexed": false,
          "internalType": "address",
          "name": "account",
          "type": "address"
        }
      ],
      "name": "Paused",
      "type": "event"
    },
    {
      "anonymous": false,
      "inputs": [
        {
          "indexed": false,
          "internalType": "address",
          "name": "account",
          "type": "address"
        }
      ],
      "name": "Unpaused",
      "type": "event"
    },
    {
      "inputs": [],
      "name": "claimPeriodEnds",
      "outputs": [
        {
          "internalType": "uint256",
          "name": "",
          "type": "uint256"
        }
      ],
      "stateMutability": "view",
      "type": "function"
    },
    {
      "inputs": [
        {
          "internalType": "uint256",
          "name": "_amount",
          "type": "uint256"
        },
        {
          "internalType": "bytes32[]",
          "name": "_merkleProof",
          "type": "bytes32[]"
        }
      ],
      "name": "claimTokens",
      "outputs": [],
      "stateMutability": "nonpayable",
      "type": "function"
    },
    {
      "inputs": [],
      "name": "codeToken",
      "outputs": [
        {
          "internalType": "contract IERC20",
          "name": "",
          "type": "address"
        }
      ],
      "stateMutability": "view",
      "type": "function"
    },
    {
      "inputs": [
        {
          "internalType": "uint256",
          "name": "index",
          "type": "uint256"
        }
      ],
      "name": "isClaimed",
      "outputs": [
        {
          "internalType": "bool",
          "name": "",
          "type": "bool"
        }
      ],
      "stateMutability": "view",
      "type": "function"
    },
    {
      "inputs": [],
      "name": "merkleRoot",
      "outputs": [
        {
          "internalType": "bytes32",
          "name": "",
          "type": "bytes32"
        }
      ],
      "stateMutability": "view",
      "type": "function"
    },
    {
      "inputs": [],
      "name": "owner",
      "outputs": [
        {
          "internalType": "address",
          "name": "",
          "type": "address"
        }
      ],
      "stateMutability": "view",
      "type": "function"
    },
    {
      "inputs": [],
      "name": "pause",
      "outputs": [],
      "stateMutability": "nonpayable",
      "type": "function"
    },
    {
      "inputs": [],
      "name": "paused",
      "outputs": [
        {
          "internalType": "bool",
          "name": "",
          "type": "bool"
        }
      ],
      "stateMutability": "view",
      "type": "function"
    },
    {
      "inputs": [],
      "name": "renounceOwnership",
      "outputs": [],
      "stateMutability": "nonpayable",
      "type": "function"
    },
    {
      "inputs": [
        {
          "internalType": "bytes32",
          "name": "_merkleRoot",
          "type": "bytes32"
        }
      ],
      "name": "setMerkleRoot",
      "outputs": [],
      "stateMutability": "nonpayable",
      "type": "function"
    },
    {
      "inputs": [
        {
          "internalType": "address",
          "name": "newOwner",
          "type": "address"
        }
      ],
      "name": "transferOwnership",
      "outputs": [],
      "stateMutability": "nonpayable",
      "type": "function"
    },
    {
      "inputs": [],
      "name": "unpause",
      "outputs": [],
      "stateMutability": "nonpayable",
      "type": "function"
    }
  ],
  "transactionHash": "0x6eaf9653a19146350ad4b20b8056dea349b2024b94cb0452739b3a0aa9d5261d",
  "args": [
    1658319717,
    "0xf989BFE87bD53a56351CbBE061a09df3C5263683"
  ],
  "solcInputHash": "1d526611c82d1884434af2794425796a",
  "bytecode": "0x60a060405234801561001057600080fd5b50604051610d57380380610d5783398101604081905261002f916100d3565b61003833610083565b6000805460ff60a01b191690556001600160a01b03811661006c576040516324560b2960e11b815260040160405180910390fd5b6003919091556001600160a01b0316608052610110565b600080546001600160a01b038381166001600160a01b0319831681178455604051919092169283917f8be0079c531659141344cd1fd0a4f28419497f9722a3daafe3b4186f6b6457e09190a35050565b600080604083850312156100e657600080fd5b825160208401519092506001600160a01b038116811461010557600080fd5b809150509250929050565b608051610c2561013260003960008181610173015261063f0152610c256000f3fe608060405234801561001057600080fd5b50600436106100d45760003560e01c80638456cb59116100815780639a114cb21161005b5780639a114cb2146101955780639e34070f146101a8578063f2fde38b146101d957600080fd5b80638456cb59146101415780638da5cb5b14610149578063904d20221461016e57600080fd5b806366deac47116100b257806366deac471461011d578063715018a6146101265780637cb647591461012e57600080fd5b80632eb4a7ab146100d95780633f4ba83a146100f55780635c975abb146100ff575b600080fd5b6100e260025481565b6040519081526020015b60405180910390f35b6100fd6101ec565b005b600054600160a01b900460ff165b60405190151581526020016100ec565b6100e260035481565b6100fd610255565b6100fd61013c366004610a55565b6102b9565b6100fd610388565b6000546001600160a01b03165b6040516001600160a01b0390911681526020016100ec565b6101567f000000000000000000000000000000000000000000000000000000000000000081565b6100fd6101a3366004610a6e565b6103ea565b61010d6101b6366004610a55565b600881901c60009081526001602081905260409091205460ff9092161b16151590565b6100fd6101e7366004610aed565b6106cc565b6000546001600160a01b0316331461024b5760405162461bcd60e51b815260206004820181905260248201527f4f776e61626c653a2063616c6c6572206973206e6f7420746865206f776e657260448201526064015b60405180910390fd5b6102536107ae565b565b6000546001600160a01b031633146102af5760405162461bcd60e51b815260206004820181905260248201527f4f776e61626c653a2063616c6c6572206973206e6f7420746865206f776e65726044820152606401610242565b610253600061086f565b6000546001600160a01b031633146103135760405162461bcd60e51b815260206004820181905260248201527f4f776e61626c653a2063616c6c6572206973206e6f7420746865206f776e65726044820152606401610242565b6002541561034d576040517fb071c0a400000000000000000000000000000000000000000000000000000000815260040160405180910390fd5b60028190556040518181527f1b930366dfeaa7eb3b325021e4ae81e36527063452ee55b86c95f85b36f4c31c9060200160405180910390a150565b6000546001600160a01b031633146103e25760405162461bcd60e51b815260206004820181905260248201527f4f776e61626c653a2063616c6c6572206973206e6f7420746865206f776e65726044820152606401610242565b6102536108d7565b600054600160a01b900460ff16156104445760405162461bcd60e51b815260206004820152601060248201527f5061757361626c653a20706175736564000000000000000000000000000000006044820152606401610242565b6040517fffffffffffffffffffffffffffffffffffffffff0000000000000000000000003360601b166020820152603481018490526000906054016040516020818303038152906040528051906020012090506000806104db858580806020026020016040519081016040528093929190818152602001838360200280828437600092019190915250506002549150869050610987565b9150915081610516576040517f09bde33900000000000000000000000000000000000000000000000000000000815260040160405180910390fd5b61053d81600881901c60009081526001602081905260409091205460ff9092161b16151590565b15610574576040517f646cf55800000000000000000000000000000000000000000000000000000000815260040160405180910390fd5b6003544211156105b0576040517f4f184b7e00000000000000000000000000000000000000000000000000000000815260040160405180910390fd5b600881901c6000908152600160208190526040909120805460ff84169290921b909117905560405186815233907f47cee97cb7acd717b3c0aa1435d004cd5b3c8c57d70dbceb4e4458bbd60e39d49060200160405180910390a26040517fa9059cbb000000000000000000000000000000000000000000000000000000008152336004820152602481018790527f00000000000000000000000000000000000000000000000000000000000000006001600160a01b03169063a9059cbb90604401602060405180830381600087803b15801561068b57600080fd5b505af115801561069f573d6000803e3d6000fd5b505050506040513d601f19601f820116820180604052508101906106c39190610b1d565b50505050505050565b6000546001600160a01b031633146107265760405162461bcd60e51b815260206004820181905260248201527f4f776e61626c653a2063616c6c6572206973206e6f7420746865206f776e65726044820152606401610242565b6001600160a01b0381166107a25760405162461bcd60e51b815260206004820152602660248201527f4f776e61626c653a206e6577206f776e657220697320746865207a65726f206160448201527f64647265737300000000000000000000000000000000000000000000000000006064820152608401610242565b6107ab8161086f565b50565b600054600160a01b900460ff166108075760405162461bcd60e51b815260206004820152601460248201527f5061757361626c653a206e6f74207061757365640000000000000000000000006044820152606401610242565b600080547fffffffffffffffffffffff00ffffffffffffffffffffffffffffffffffffffff1690557f5db9ee0a495bf2e6ff9c91a7834c1ba4fdd244a5e8aa4e537bd38aeae4b073aa335b6040516001600160a01b03909116815260200160405180910390a1565b600080546001600160a01b038381167fffffffffffffffffffffffff0000000000000000000000000000000000000000831681178455604051919092169283917f8be0079c531659141344cd1fd0a4f28419497f9722a3daafe3b4186f6b6457e09190a35050565b600054600160a01b900460ff16156109315760405162461bcd60e51b815260206004820152601060248201527f5061757361626c653a20706175736564000000000000000000000000000000006044820152606401610242565b600080547fffffffffffffffffffffff00ffffffffffffffffffffffffffffffffffffffff16600160a01b1790557f62e78cea01bee320cd4e420270b5ea74000d11b0c9f74754ebdbfc544b05a2586108523390565b6000808281805b8751811015610a49576109a2600283610b6e565b915060008882815181106109b8576109b8610b8d565b602002602001015190508084116109fa576040805160208101869052908101829052606001604051602081830303815290604052805190602001209350610a36565b6040805160208101839052908101859052606001604051602081830303815290604052805190602001209350600183610a339190610bbc565b92505b5080610a4181610bd4565b91505061098e565b50941495939450505050565b600060208284031215610a6757600080fd5b5035919050565b600080600060408486031215610a8357600080fd5b83359250602084013567ffffffffffffffff80821115610aa257600080fd5b818601915086601f830112610ab657600080fd5b813581811115610ac557600080fd5b8760208260051b8501011115610ada57600080fd5b6020830194508093505050509250925092565b600060208284031215610aff57600080fd5b81356001600160a01b0381168114610b1657600080fd5b9392505050565b600060208284031215610b2f57600080fd5b81518015158114610b1657600080fd5b7f4e487b7100000000000000000000000000000000000000000000000000000000600052601160045260246000fd5b6000816000190483118215151615610b8857610b88610b3f565b500290565b7f4e487b7100000000000000000000000000000000000000000000000000000000600052603260045260246000fd5b60008219821115610bcf57610bcf610b3f565b500190565b6000600019821415610be857610be8610b3f565b506001019056fea264697066735822122006ceb2cd2061b5cafd295d32a0a4547dc892ac62685aa9c297aab19e7a17ae2964736f6c63430008090033",
  "devdoc": {
    "kind": "dev",
    "methods": {
      "owner()": {
        "details": "Returns the address of the current owner."
      },
      "paused()": {
        "details": "Returns true if the contract is paused, and false otherwise."
      },
      "renounceOwnership()": {
        "details": "Leaves the contract without owner. It will not be possible to call `onlyOwner` functions anymore. Can only be called by the current owner. NOTE: Renouncing ownership will leave the contract without an owner, thereby removing any functionality that is only available to the owner."
      },
      "transferOwnership(address)": {
        "details": "Transfers ownership of the contract to a new account (`newOwner`). Can only be called by the current owner."
      }
    },
    "version": 1
  },
  "userdoc": {
    "kind": "user",
    "methods": {},
    "version": 1
  },
  "storageLayout": {
    "storage": [
      {
        "astId": 387,
        "contract": "src/ClaimCODE.sol:ClaimCODE",
        "label": "_owner",
        "offset": 0,
        "slot": "0",
        "type": "t_address"
      },
      {
        "astId": 501,
        "contract": "src/ClaimCODE.sol:ClaimCODE",
        "label": "_paused",
        "offset": 20,
        "slot": "0",
        "type": "t_bool"
      },
      {
        "astId": 10613,
        "contract": "src/ClaimCODE.sol:ClaimCODE",
        "label": "claimed",
        "offset": 0,
        "slot": "1",
        "type": "t_struct(BitMap)2339_storage"
      },
      {
        "astId": 10615,
        "contract": "src/ClaimCODE.sol:ClaimCODE",
        "label": "merkleRoot",
        "offset": 0,
        "slot": "2",
        "type": "t_bytes32"
      },
      {
        "astId": 10617,
        "contract": "src/ClaimCODE.sol:ClaimCODE",
        "label": "claimPeriodEnds",
        "offset": 0,
        "slot": "3",
        "type": "t_uint256"
      }
    ],
    "types": {
      "t_address": {
        "encoding": "inplace",
        "label": "address",
        "numberOfBytes": "20"
      },
      "t_bool": {
        "encoding": "inplace",
        "label": "bool",
        "numberOfBytes": "1"
      },
      "t_bytes32": {
        "encoding": "inplace",
        "label": "bytes32",
        "numberOfBytes": "32"
      },
      "t_mapping(t_uint256,t_uint256)": {
        "encoding": "mapping",
        "key": "t_uint256",
        "label": "mapping(uint256 => uint256)",
        "numberOfBytes": "32",
        "value": "t_uint256"
      },
      "t_struct(BitMap)2339_storage": {
        "encoding": "inplace",
        "label": "struct BitMaps.BitMap",
        "members": [
          {
            "astId": 2338,
            "contract": "src/ClaimCODE.sol:ClaimCODE",
            "label": "_data",
            "offset": 0,
            "slot": "0",
            "type": "t_mapping(t_uint256,t_uint256)"
          }
        ],
        "numberOfBytes": "32"
      },
      "t_uint256": {
        "encoding": "inplace",
        "label": "uint256",
        "numberOfBytes": "32"
      }
    }
  }
}