{
  "address": "0x5019b98d69Be17f4909636aa1253C211212573Af",
  "abi": [
    {
      "inputs": [
        {
          "internalType": "address",
          "name": "_treasury",
          "type": "address"
        },
        {
          "internalType": "uint256",
          "name": "treasurySupply",
          "type": "uint256"
        },
        {
          "internalType": "uint256",
          "name": "airdropSupply",
          "type": "uint256"
        },
        {
          "internalType": "uint256",
          "name": "_claimPeriodEnds",
          "type": "uint256"
        }
      ],
      "stateMutability": "nonpayable",
      "type": "constructor"
    },
    {
      "anonymous": false,
      "inputs": [
        {
          "indexed": true,
          "internalType": "address",
          "name": "owner",
          "type": "address"
        },
        {
          "indexed": true,
          "internalType": "address",
          "name": "spender",
          "type": "address"
        },
        {
          "indexed": false,
          "internalType": "uint256",
          "name": "value",
          "type": "uint256"
        }
      ],
      "name": "Approval",
      "type": "event"
    },
    {
      "anonymous": false,
      "inputs": [
        {
          "indexed": true,
          "internalType": "address",
          "name": "claimant",
          "type": "address"
        },
        {
          "indexed": false,
          "internalType": "uint256",
          "name": "amount",
          "type": "uint256"
        }
      ],
      "name": "Claim",
      "type": "event"
    },
    {
      "anonymous": false,
      "inputs": [
        {
          "indexed": false,
          "internalType": "bytes32",
          "name": "merkleRoot",
          "type": "bytes32"
        }
      ],
      "name": "MerkleRootChanged",
      "type": "event"
    },
    {
      "anonymous": false,
      "inputs": [
        {
          "indexed": true,
          "internalType": "address",
          "name": "previousOwner",
          "type": "address"
        },
        {
          "indexed": true,
          "internalType": "address",
          "name": "newOwner",
          "type": "address"
        }
      ],
      "name": "OwnershipTransferred",
      "type": "event"
    },
    {
      "anonymous": false,
      "inputs": [
        {
          "indexed": true,
          "internalType": "address",
          "name": "from",
          "type": "address"
        },
        {
          "indexed": true,
          "internalType": "address",
          "name": "to",
          "type": "address"
        },
        {
          "indexed": false,
          "internalType": "uint256",
          "name": "value",
          "type": "uint256"
        }
      ],
      "name": "Transfer",
      "type": "event"
    },
    {
      "inputs": [],
      "name": "DOMAIN_SEPARATOR",
      "outputs": [
        {
          "internalType": "bytes32",
          "name": "",
          "type": "bytes32"
        }
      ],
      "stateMutability": "view",
      "type": "function"
    },
    {
      "inputs": [
        {
          "internalType": "address",
          "name": "owner",
          "type": "address"
        },
        {
          "internalType": "address",
          "name": "spender",
          "type": "address"
        }
      ],
      "name": "allowance",
      "outputs": [
        {
          "internalType": "uint256",
          "name": "",
          "type": "uint256"
        }
      ],
      "stateMutability": "view",
      "type": "function"
    },
    {
      "inputs": [
        {
          "internalType": "address",
          "name": "spender",
          "type": "address"
        },
        {
          "internalType": "uint256",
          "name": "amount",
          "type": "uint256"
        }
      ],
      "name": "approve",
      "outputs": [
        {
          "internalType": "bool",
          "name": "",
          "type": "bool"
        }
      ],
      "stateMutability": "nonpayable",
      "type": "function"
    },
    {
      "inputs": [
        {
          "internalType": "address",
          "name": "account",
          "type": "address"
        }
      ],
      "name": "balanceOf",
      "outputs": [
        {
          "internalType": "uint256",
          "name": "",
          "type": "uint256"
        }
      ],
      "stateMutability": "view",
      "type": "function"
    },
    {
      "inputs": [],
      "name": "claimPeriodEnds",
      "outputs": [
        {
          "internalType": "uint256",
          "name": "",
          "type": "uint256"
        }
      ],
      "stateMutability": "view",
      "type": "function"
    },
    {
      "inputs": [
        {
          "internalType": "uint256",
          "name": "amount",
          "type": "uint256"
        },
        {
          "internalType": "bytes32[]",
          "name": "merkleProof",
          "type": "bytes32[]"
        }
      ],
      "name": "claimTokens",
      "outputs": [],
      "stateMutability": "nonpayable",
      "type": "function"
    },
    {
      "inputs": [],
      "name": "decimals",
      "outputs": [
        {
          "internalType": "uint8",
          "name": "",
          "type": "uint8"
        }
      ],
      "stateMutability": "view",
      "type": "function"
    },
    {
      "inputs": [
        {
          "internalType": "address",
          "name": "spender",
          "type": "address"
        },
        {
          "internalType": "uint256",
          "name": "subtractedValue",
          "type": "uint256"
        }
      ],
      "name": "decreaseAllowance",
      "outputs": [
        {
          "internalType": "bool",
          "name": "",
          "type": "bool"
        }
      ],
      "stateMutability": "nonpayable",
      "type": "function"
    },
    {
      "inputs": [],
      "name": "disableMinting",
      "outputs": [],
      "stateMutability": "nonpayable",
      "type": "function"
    },
    {
      "inputs": [
        {
          "internalType": "address",
          "name": "spender",
          "type": "address"
        },
        {
          "internalType": "uint256",
          "name": "addedValue",
          "type": "uint256"
        }
      ],
      "name": "increaseAllowance",
      "outputs": [
        {
          "internalType": "bool",
          "name": "",
          "type": "bool"
        }
      ],
      "stateMutability": "nonpayable",
      "type": "function"
    },
    {
      "inputs": [
        {
          "internalType": "uint256",
          "name": "index",
          "type": "uint256"
        }
      ],
      "name": "isClaimed",
      "outputs": [
        {
          "internalType": "bool",
          "name": "",
          "type": "bool"
        }
      ],
      "stateMutability": "view",
      "type": "function"
    },
    {
      "inputs": [],
      "name": "merkleRoot",
      "outputs": [
        {
          "internalType": "bytes32",
          "name": "",
          "type": "bytes32"
        }
      ],
      "stateMutability": "view",
      "type": "function"
    },
    {
      "inputs": [
        {
          "internalType": "uint256",
          "name": "additionalSupply",
          "type": "uint256"
        }
      ],
      "name": "mint",
      "outputs": [],
      "stateMutability": "nonpayable",
      "type": "function"
    },
    {
      "inputs": [],
      "name": "mintingEnabled",
      "outputs": [
        {
          "internalType": "bool",
          "name": "",
          "type": "bool"
        }
      ],
      "stateMutability": "view",
      "type": "function"
    },
    {
      "inputs": [],
      "name": "name",
      "outputs": [
        {
          "internalType": "string",
          "name": "",
          "type": "string"
        }
      ],
      "stateMutability": "view",
      "type": "function"
    },
    {
      "inputs": [
        {
          "internalType": "address",
          "name": "owner",
          "type": "address"
        }
      ],
      "name": "nonces",
      "outputs": [
        {
          "internalType": "uint256",
          "name": "",
          "type": "uint256"
        }
      ],
      "stateMutability": "view",
      "type": "function"
    },
    {
      "inputs": [],
      "name": "owner",
      "outputs": [
        {
          "internalType": "address",
          "name": "",
          "type": "address"
        }
      ],
      "stateMutability": "view",
      "type": "function"
    },
    {
      "inputs": [
        {
          "internalType": "address",
          "name": "owner",
          "type": "address"
        },
        {
          "internalType": "address",
          "name": "spender",
          "type": "address"
        },
        {
          "internalType": "uint256",
          "name": "value",
          "type": "uint256"
        },
        {
          "internalType": "uint256",
          "name": "deadline",
          "type": "uint256"
        },
        {
          "internalType": "uint8",
          "name": "v",
          "type": "uint8"
        },
        {
          "internalType": "bytes32",
          "name": "r",
          "type": "bytes32"
        },
        {
          "internalType": "bytes32",
          "name": "s",
          "type": "bytes32"
        }
      ],
      "name": "permit",
      "outputs": [],
      "stateMutability": "nonpayable",
      "type": "function"
    },
    {
      "inputs": [],
      "name": "renounceOwnership",
      "outputs": [],
      "stateMutability": "nonpayable",
      "type": "function"
    },
    {
      "inputs": [
        {
          "internalType": "bytes32",
          "name": "_merkleRoot",
          "type": "bytes32"
        }
      ],
      "name": "setMerkleRoot",
      "outputs": [],
      "stateMutability": "nonpayable",
      "type": "function"
    },
    {
      "inputs": [],
      "name": "sweep",
      "outputs": [],
      "stateMutability": "nonpayable",
      "type": "function"
    },
    {
      "inputs": [],
      "name": "symbol",
      "outputs": [
        {
          "internalType": "string",
          "name": "",
          "type": "string"
        }
      ],
      "stateMutability": "view",
      "type": "function"
    },
    {
      "inputs": [],
      "name": "totalSupply",
      "outputs": [
        {
          "internalType": "uint256",
          "name": "",
          "type": "uint256"
        }
      ],
      "stateMutability": "view",
      "type": "function"
    },
    {
      "inputs": [
        {
          "internalType": "address",
          "name": "recipient",
          "type": "address"
        },
        {
          "internalType": "uint256",
          "name": "amount",
          "type": "uint256"
        }
      ],
      "name": "transfer",
      "outputs": [
        {
          "internalType": "bool",
          "name": "",
          "type": "bool"
        }
      ],
      "stateMutability": "nonpayable",
      "type": "function"
    },
    {
      "inputs": [
        {
          "internalType": "address",
          "name": "sender",
          "type": "address"
        },
        {
          "internalType": "address",
          "name": "recipient",
          "type": "address"
        },
        {
          "internalType": "uint256",
          "name": "amount",
          "type": "uint256"
        }
      ],
      "name": "transferFrom",
      "outputs": [
        {
          "internalType": "bool",
          "name": "",
          "type": "bool"
        }
      ],
      "stateMutability": "nonpayable",
      "type": "function"
    },
    {
      "inputs": [
        {
          "internalType": "address",
          "name": "newOwner",
          "type": "address"
        }
      ],
      "name": "transferOwnership",
      "outputs": [],
      "stateMutability": "nonpayable",
      "type": "function"
    },
    {
      "inputs": [],
      "name": "treasury",
      "outputs": [
        {
          "internalType": "address",
          "name": "",
          "type": "address"
        }
      ],
      "stateMutability": "view",
      "type": "function"
    }
  ],
  "transactionHash": "0xf6a754916e86e3bfa6a8abcb4663a3d8ba0ece76f58016c0cd91770244ef9df9",
  "args": [
    "0xB11663369C14ebc1477A21B501809d0dA98B1969",
    6500000,
    3500000,
    1651157054
  ],
  "solcInputHash": "c88428b0b1eeadc76fc162ef611e5459",
  "bytecode": "0x6101406040527f6e71edae12b1b97f4d1f60370fef10105fa2faae0126114a169c64845d6126c961012052600a805460ff60a01b1916600160a01b1790553480156200004a57600080fd5b50604051620021ae380380620021ae8339810160408190526200006d91620003fc565b6040518060400160405280600d81526020016c446576656c6f7065722044414f60981b81525080604051806040016040528060018152602001603160f81b8152506040518060400160405280600d81526020016c446576656c6f7065722044414f60981b81525060405180604001604052806004815260200163434f444560e01b81525081600390805190602001906200010992919062000356565b5080516200011f90600490602084019062000356565b5050825160209384012082519284019290922060c083815260e08290524660a0818152604080517f8b73c3c69bb8fe3d512ecc4cf759cc79239f7b179b0ffacaa9a75d522b39400f818a018190528183019890985260608101959095526080808601939093523085830152805180860390920182529390920190925280519401939093209092526101005250620001b89050336200021c565b620001d784620001d185670de0b6b3a76400006200045f565b6200026e565b620001f030620001d184670de0b6b3a76400006200045f565b600a80546001600160a01b0319166001600160a01b0395909516949094179093555050600955620004d9565b600680546001600160a01b038381166001600160a01b0319831681179093556040519116919082907f8be0079c531659141344cd1fd0a4f28419497f9722a3daafe3b4186f6b6457e090600090a35050565b6001600160a01b038216620002c95760405162461bcd60e51b815260206004820152601f60248201527f45524332303a206d696e7420746f20746865207a65726f206164647265737300604482015260640160405180910390fd5b8060026000828254620002dd919062000481565b90915550506001600160a01b038216600090815260208190526040812080548392906200030c90849062000481565b90915550506040518181526001600160a01b038316906000907fddf252ad1be2c89b69c2b068fc378daa952ba7f163c4a11628f55a4df523b3ef9060200160405180910390a35050565b82805462000364906200049c565b90600052602060002090601f016020900481019282620003885760008555620003d3565b82601f10620003a357805160ff1916838001178555620003d3565b82800160010185558215620003d3579182015b82811115620003d3578251825591602001919060010190620003b6565b50620003e1929150620003e5565b5090565b5b80821115620003e15760008155600101620003e6565b600080600080608085870312156200041357600080fd5b84516001600160a01b03811681146200042b57600080fd5b60208601516040870151606090970151919890975090945092505050565b634e487b7160e01b600052601160045260246000fd5b60008160001904831182151516156200047c576200047c62000449565b500290565b6000821982111562000497576200049762000449565b500190565b600181811c90821680620004b157607f821691505b60208210811415620004d357634e487b7160e01b600052602260045260246000fd5b50919050565b60805160a05160c05160e0516101005161012051611c85620005296000396000610c770152600061122c0152600061127b01526000611256015260006111da015260006112030152611c856000f3fe608060405234801561001057600080fd5b50600436106101b95760003560e01c80637cb64759116100f95780639fd6db1211610097578063a9059cbb11610071578063a9059cbb1461037e578063d505accf14610391578063dd62ed3e146103a4578063f2fde38b146103dd57600080fd5b80639fd6db1214610333578063a0712d6814610358578063a457c2d71461036b57600080fd5b80638da5cb5b116100d35780638da5cb5b146102f457806395d89b41146103055780639a114cb21461030d5780639e34070f1461032057600080fd5b80637cb64759146102c65780637e5cd5c1146102d95780637ecebe00146102e157600080fd5b806335faa4161161016657806361d027b31161014057806361d027b31461026157806366deac471461028c57806370a0823114610295578063715018a6146102be57600080fd5b806335faa4161461023c5780633644e51514610246578063395093511461024e57600080fd5b806323b872dd1161019757806323b872dd146102115780632eb4a7ab14610224578063313ce5671461022d57600080fd5b806306fdde03146101be578063095ea7b3146101dc57806318160ddd146101ff575b600080fd5b6101c66103f0565b6040516101d3919061195f565b60405180910390f35b6101ef6101ea366004611995565b610482565b60405190151581526020016101d3565b6002545b6040519081526020016101d3565b6101ef61021f3660046119bf565b610498565b61020360085481565b604051601281526020016101d3565b61024461055c565b005b61020361062f565b6101ef61025c366004611995565b61063e565b600a54610274906001600160a01b031681565b6040516001600160a01b0390911681526020016101d3565b61020360095481565b6102036102a33660046119fb565b6001600160a01b031660009081526020819052604090205490565b61024461067a565b6102446102d4366004611a16565b6106de565b6102446107c3565b6102036102ef3660046119fb565b610847565b6006546001600160a01b0316610274565b6101c6610867565b61024461031b366004611a2f565b610876565b6101ef61032e366004611a16565b610a5b565b600a546101ef9074010000000000000000000000000000000000000000900460ff1681565b610244610366366004611a16565b610a7e565b6101ef610379366004611995565b610b65565b6101ef61038c366004611995565b610c16565b61024461039f366004611aae565b610c23565b6102036103b2366004611b21565b6001600160a01b03918216600090815260016020908152604080832093909416825291909152205490565b6102446103eb3660046119fb565b610d87565b6060600380546103ff90611b54565b80601f016020809104026020016040519081016040528092919081815260200182805461042b90611b54565b80156104785780601f1061044d57610100808354040283529160200191610478565b820191906000526020600020905b81548152906001019060200180831161045b57829003601f168201915b5050505050905090565b600061048f338484610e66565b50600192915050565b60006104a5848484610fbe565b6001600160a01b0384166000908152600160209081526040808320338452909152902054828110156105445760405162461bcd60e51b815260206004820152602860248201527f45524332303a207472616e7366657220616d6f756e742065786365656473206160448201527f6c6c6f77616e636500000000000000000000000000000000000000000000000060648201526084015b60405180910390fd5b6105518533858403610e66565b506001949350505050565b6006546001600160a01b031633146105b65760405162461bcd60e51b815260206004820181905260248201527f4f776e61626c653a2063616c6c6572206973206e6f7420746865206f776e6572604482015260640161053b565b60095442116106075760405162461bcd60e51b815260206004820181905260248201527f434f44453a20436c61696d20706572696f64206e6f742079657420656e646564604482015260640161053b565b600a543060008181526020819052604090205461062d926001600160a01b031690610fbe565b565b60006106396111d6565b905090565b3360008181526001602090815260408083206001600160a01b0387168452909152812054909161048f918590610675908690611b9f565b610e66565b6006546001600160a01b031633146106d45760405162461bcd60e51b815260206004820181905260248201527f4f776e61626c653a2063616c6c6572206973206e6f7420746865206f776e6572604482015260640161053b565b61062d60006112c9565b6006546001600160a01b031633146107385760405162461bcd60e51b815260206004820181905260248201527f4f776e61626c653a2063616c6c6572206973206e6f7420746865206f776e6572604482015260640161053b565b600854156107885760405162461bcd60e51b815260206004820152601d60248201527f434f44453a204d65726b6c6520726f6f7420616c726561647920736574000000604482015260640161053b565b60088190556040518181527f1b930366dfeaa7eb3b325021e4ae81e36527063452ee55b86c95f85b36f4c31c9060200160405180910390a150565b6006546001600160a01b0316331461081d5760405162461bcd60e51b815260206004820181905260248201527f4f776e61626c653a2063616c6c6572206973206e6f7420746865206f776e6572604482015260640161053b565b600a80547fffffffffffffffffffffff00ffffffffffffffffffffffffffffffffffffffff169055565b6001600160a01b0381166000908152600560205260408120545b92915050565b6060600480546103ff90611b54565b6040517fffffffffffffffffffffffffffffffffffffffff0000000000000000000000003360601b1660208201526034810184905260009060540160405160208183030381529060405280519060200120905060008061090d858580806020026020016040519081016040528093929190818152602001838360200280828437600092019190915250506008549150869050611333565b915091508161095e5760405162461bcd60e51b815260206004820152601b60248201527f434f44453a2056616c69642070726f6f662072657175697265642e0000000000604482015260640161053b565b61096781610a5b565b156109b45760405162461bcd60e51b815260206004820152601d60248201527f434f44453a20546f6b656e7320616c726561647920636c61696d65642e000000604482015260640161053b565b6109f46040518060400160405280601f81526020017f547279696e6720746f20636c61696d20257320746f6b656e7320746f202573008152508733611401565b600881901c60009081526007602052604090208054600160ff84161b17905560405186815233907f47cee97cb7acd717b3c0aa1435d004cd5b3c8c57d70dbceb4e4458bbd60e39d49060200160405180910390a2610a53303388610fbe565b505050505050565b600881901c600090815260076020526040812054600160ff84161b161515610861565b6006546001600160a01b03163314610ad85760405162461bcd60e51b815260206004820181905260248201527f4f776e61626c653a2063616c6c6572206973206e6f7420746865206f776e6572604482015260640161053b565b600a5474010000000000000000000000000000000000000000900460ff161515600114610b475760405162461bcd60e51b815260206004820152601b60248201527f4e6f206e657720746f6b656e732063616e206265206d696e7465640000000000604482015260640161053b565b610b6233610b5d83670de0b6b3a7640000611bb7565b61147b565b50565b3360009081526001602090815260408083206001600160a01b038616845290915281205482811015610bff5760405162461bcd60e51b815260206004820152602560248201527f45524332303a2064656372656173656420616c6c6f77616e63652062656c6f7760448201527f207a65726f000000000000000000000000000000000000000000000000000000606482015260840161053b565b610c0c3385858403610e66565b5060019392505050565b600061048f338484610fbe565b83421115610c735760405162461bcd60e51b815260206004820152601d60248201527f45524332305065726d69743a206578706972656420646561646c696e65000000604482015260640161053b565b60007f0000000000000000000000000000000000000000000000000000000000000000888888610ca28c61155a565b6040805160208101969096526001600160a01b0394851690860152929091166060840152608083015260a082015260c0810186905260e0016040516020818303038152906040528051906020012090506000610cfd82611582565b90506000610d0d828787876115eb565b9050896001600160a01b0316816001600160a01b031614610d705760405162461bcd60e51b815260206004820152601e60248201527f45524332305065726d69743a20696e76616c6964207369676e61747572650000604482015260640161053b565b610d7b8a8a8a610e66565b50505050505050505050565b6006546001600160a01b03163314610de15760405162461bcd60e51b815260206004820181905260248201527f4f776e61626c653a2063616c6c6572206973206e6f7420746865206f776e6572604482015260640161053b565b6001600160a01b038116610e5d5760405162461bcd60e51b815260206004820152602660248201527f4f776e61626c653a206e6577206f776e657220697320746865207a65726f206160448201527f6464726573730000000000000000000000000000000000000000000000000000606482015260840161053b565b610b62816112c9565b6001600160a01b038316610ee15760405162461bcd60e51b8152602060048201526024808201527f45524332303a20617070726f76652066726f6d20746865207a65726f2061646460448201527f7265737300000000000000000000000000000000000000000000000000000000606482015260840161053b565b6001600160a01b038216610f5d5760405162461bcd60e51b815260206004820152602260248201527f45524332303a20617070726f766520746f20746865207a65726f20616464726560448201527f7373000000000000000000000000000000000000000000000000000000000000606482015260840161053b565b6001600160a01b0383811660008181526001602090815260408083209487168084529482529182902085905590518481527f8c5be1e5ebec7d5bd14f71427d1e84f3dd0314c0f7b2291e5b200ac8c7c3b925910160405180910390a3505050565b6001600160a01b03831661103a5760405162461bcd60e51b815260206004820152602560248201527f45524332303a207472616e736665722066726f6d20746865207a65726f20616460448201527f6472657373000000000000000000000000000000000000000000000000000000606482015260840161053b565b6001600160a01b0382166110b65760405162461bcd60e51b815260206004820152602360248201527f45524332303a207472616e7366657220746f20746865207a65726f206164647260448201527f6573730000000000000000000000000000000000000000000000000000000000606482015260840161053b565b6001600160a01b038316600090815260208190526040902054818110156111455760405162461bcd60e51b815260206004820152602660248201527f45524332303a207472616e7366657220616d6f756e742065786365656473206260448201527f616c616e63650000000000000000000000000000000000000000000000000000606482015260840161053b565b6001600160a01b0380851660009081526020819052604080822085850390559185168152908120805484929061117c908490611b9f565b92505081905550826001600160a01b0316846001600160a01b03167fddf252ad1be2c89b69c2b068fc378daa952ba7f163c4a11628f55a4df523b3ef846040516111c891815260200190565b60405180910390a350505050565b60007f000000000000000000000000000000000000000000000000000000000000000046141561122557507f000000000000000000000000000000000000000000000000000000000000000090565b50604080517f00000000000000000000000000000000000000000000000000000000000000006020808301919091527f0000000000000000000000000000000000000000000000000000000000000000828401527f000000000000000000000000000000000000000000000000000000000000000060608301524660808301523060a0808401919091528351808403909101815260c0909201909252805191012090565b600680546001600160a01b038381167fffffffffffffffffffffffff0000000000000000000000000000000000000000831681179093556040519116919082907f8be0079c531659141344cd1fd0a4f28419497f9722a3daafe3b4186f6b6457e090600090a35050565b6000808281805b87518110156113f55761134e600283611bb7565b9150600088828151811061136457611364611bd6565b602002602001015190508084116113a65760408051602081018690529081018290526060016040516020818303038152906040528051906020012093506113e2565b60408051602081018390529081018590526060016040516020818303038152906040528051906020012093506001836113df9190611b9f565b92505b50806113ed81611bec565b91505061133a565b50941495939450505050565b61147683838360405160240161141993929190611c07565b60408051601f198184030181529190526020810180517bffffffffffffffffffffffffffffffffffffffffffffffffffffffff167fe3849f7900000000000000000000000000000000000000000000000000000000179052611613565b505050565b6001600160a01b0382166114d15760405162461bcd60e51b815260206004820152601f60248201527f45524332303a206d696e7420746f20746865207a65726f206164647265737300604482015260640161053b565b80600260008282546114e39190611b9f565b90915550506001600160a01b03821660009081526020819052604081208054839290611510908490611b9f565b90915550506040518181526001600160a01b038316906000907fddf252ad1be2c89b69c2b068fc378daa952ba7f163c4a11628f55a4df523b3ef9060200160405180910390a35050565b6001600160a01b03811660009081526005602052604090208054600181018255905b50919050565b600061086161158f6111d6565b836040517f19010000000000000000000000000000000000000000000000000000000000006020820152602281018390526042810182905260009060620160405160208183030381529060405280519060200120905092915050565b60008060006115fc87878787611634565b9150915061160981611721565b5095945050505050565b80516a636f6e736f6c652e6c6f67602083016000808483855afa5050505050565b6000807f7fffffffffffffffffffffffffffffff5d576e7357a4501ddfe92f46681b20a083111561166b5750600090506003611718565b8460ff16601b1415801561168357508460ff16601c14155b156116945750600090506004611718565b6040805160008082526020820180845289905260ff881692820192909252606081018690526080810185905260019060a0016020604051602081039080840390855afa1580156116e8573d6000803e3d6000fd5b5050604051601f1901519150506001600160a01b03811661171157600060019250925050611718565b9150600090505b94509492505050565b600081600481111561173557611735611c39565b141561173e5750565b600181600481111561175257611752611c39565b14156117a05760405162461bcd60e51b815260206004820152601860248201527f45434453413a20696e76616c6964207369676e61747572650000000000000000604482015260640161053b565b60028160048111156117b4576117b4611c39565b14156118025760405162461bcd60e51b815260206004820152601f60248201527f45434453413a20696e76616c6964207369676e6174757265206c656e67746800604482015260640161053b565b600381600481111561181657611816611c39565b141561188a5760405162461bcd60e51b815260206004820152602260248201527f45434453413a20696e76616c6964207369676e6174757265202773272076616c60448201527f7565000000000000000000000000000000000000000000000000000000000000606482015260840161053b565b600481600481111561189e5761189e611c39565b1415610b625760405162461bcd60e51b815260206004820152602260248201527f45434453413a20696e76616c6964207369676e6174757265202776272076616c60448201527f7565000000000000000000000000000000000000000000000000000000000000606482015260840161053b565b6000815180845260005b818110156119385760208185018101518683018201520161191c565b8181111561194a576000602083870101525b50601f01601f19169290920160200192915050565b6020815260006119726020830184611912565b9392505050565b80356001600160a01b038116811461199057600080fd5b919050565b600080604083850312156119a857600080fd5b6119b183611979565b946020939093013593505050565b6000806000606084860312156119d457600080fd5b6119dd84611979565b92506119eb60208501611979565b9150604084013590509250925092565b600060208284031215611a0d57600080fd5b61197282611979565b600060208284031215611a2857600080fd5b5035919050565b600080600060408486031215611a4457600080fd5b83359250602084013567ffffffffffffffff80821115611a6357600080fd5b818601915086601f830112611a7757600080fd5b813581811115611a8657600080fd5b8760208260051b8501011115611a9b57600080fd5b6020830194508093505050509250925092565b600080600080600080600060e0888a031215611ac957600080fd5b611ad288611979565b9650611ae060208901611979565b95506040880135945060608801359350608088013560ff81168114611b0457600080fd5b9699959850939692959460a0840135945060c09093013592915050565b60008060408385031215611b3457600080fd5b611b3d83611979565b9150611b4b60208401611979565b90509250929050565b600181811c90821680611b6857607f821691505b6020821081141561157c57634e487b7160e01b600052602260045260246000fd5b634e487b7160e01b600052601160045260246000fd5b60008219821115611bb257611bb2611b89565b500190565b6000816000190483118215151615611bd157611bd1611b89565b500290565b634e487b7160e01b600052603260045260246000fd5b6000600019821415611c0057611c00611b89565b5060010190565b606081526000611c1a6060830186611912565b90508360208301526001600160a01b0383166040830152949350505050565b634e487b7160e01b600052602160045260246000fdfea26469706673582212208f0e5ffa00d6669ce82db3b2ecc701db4057d7d8692f9da00fe295b11f16b13a64736f6c63430008090033",
  "devdoc": {
    "kind": "dev",
    "methods": {
      "DOMAIN_SEPARATOR()": {
        "details": "See {IERC20Permit-DOMAIN_SEPARATOR}."
      },
      "allowance(address,address)": {
        "details": "See {IERC20-allowance}."
      },
      "approve(address,uint256)": {
        "details": "See {IERC20-approve}. Requirements: - `spender` cannot be the zero address."
      },
      "balanceOf(address)": {
        "details": "See {IERC20-balanceOf}."
      },
      "decimals()": {
        "details": "Returns the number of decimals used to get its user representation. For example, if `decimals` equals `2`, a balance of `505` tokens should be displayed to a user as `5.05` (`505 / 10 ** 2`). Tokens usually opt for a value of 18, imitating the relationship between Ether and Wei. This is the value {ERC20} uses, unless this function is overridden; NOTE: This information is only used for _display_ purposes: it in no way affects any of the arithmetic of the contract, including {IERC20-balanceOf} and {IERC20-transfer}."
      },
      "decreaseAllowance(address,uint256)": {
        "details": "Atomically decreases the allowance granted to `spender` by the caller. This is an alternative to {approve} that can be used as a mitigation for problems described in {IERC20-approve}. Emits an {Approval} event indicating the updated allowance. Requirements: - `spender` cannot be the zero address. - `spender` must have allowance for the caller of at least `subtractedValue`."
      },
      "increaseAllowance(address,uint256)": {
        "details": "Atomically increases the allowance granted to `spender` by the caller. This is an alternative to {approve} that can be used as a mitigation for problems described in {IERC20-approve}. Emits an {Approval} event indicating the updated allowance. Requirements: - `spender` cannot be the zero address."
      },
      "name()": {
        "details": "Returns the name of the token."
      },
      "nonces(address)": {
        "details": "See {IERC20Permit-nonces}."
      },
      "owner()": {
        "details": "Returns the address of the current owner."
      },
      "permit(address,address,uint256,uint256,uint8,bytes32,bytes32)": {
        "details": "See {IERC20Permit-permit}."
      },
      "renounceOwnership()": {
        "details": "Leaves the contract without owner. It will not be possible to call `onlyOwner` functions anymore. Can only be called by the current owner. NOTE: Renouncing ownership will leave the contract without an owner, thereby removing any functionality that is only available to the owner."
      },
      "symbol()": {
        "details": "Returns the symbol of the token, usually a shorter version of the name."
      },
      "totalSupply()": {
        "details": "See {IERC20-totalSupply}."
      },
      "transfer(address,uint256)": {
        "details": "See {IERC20-transfer}. Requirements: - `recipient` cannot be the zero address. - the caller must have a balance of at least `amount`."
      },
      "transferFrom(address,address,uint256)": {
        "details": "See {IERC20-transferFrom}. Emits an {Approval} event indicating the updated allowance. This is not required by the EIP. See the note at the beginning of {ERC20}. Requirements: - `sender` and `recipient` cannot be the zero address. - `sender` must have a balance of at least `amount`. - the caller must have allowance for ``sender``'s tokens of at least `amount`."
      },
      "transferOwnership(address)": {
        "details": "Transfers ownership of the contract to a new account (`newOwner`). Can only be called by the current owner."
      }
    },
    "version": 1
  },
  "userdoc": {
    "kind": "user",
    "methods": {},
    "version": 1
  },
  "storageLayout": {
    "storage": [
      {
        "astId": 119,
        "contract": "src/CODEToken.sol:CODEToken",
        "label": "_balances",
        "offset": 0,
        "slot": "0",
        "type": "t_mapping(t_address,t_uint256)"
      },
      {
        "astId": 125,
        "contract": "src/CODEToken.sol:CODEToken",
        "label": "_allowances",
        "offset": 0,
        "slot": "1",
        "type": "t_mapping(t_address,t_mapping(t_address,t_uint256))"
      },
      {
        "astId": 127,
        "contract": "src/CODEToken.sol:CODEToken",
        "label": "_totalSupply",
        "offset": 0,
        "slot": "2",
        "type": "t_uint256"
      },
      {
        "astId": 129,
        "contract": "src/CODEToken.sol:CODEToken",
        "label": "_name",
        "offset": 0,
        "slot": "3",
        "type": "t_string_storage"
      },
      {
        "astId": 131,
        "contract": "src/CODEToken.sol:CODEToken",
        "label": "_symbol",
        "offset": 0,
        "slot": "4",
        "type": "t_string_storage"
      },
      {
        "astId": 775,
        "contract": "src/CODEToken.sol:CODEToken",
        "label": "_nonces",
        "offset": 0,
        "slot": "5",
        "type": "t_mapping(t_address,t_struct(Counter)985_storage)"
      },
      {
        "astId": 7,
        "contract": "src/CODEToken.sol:CODEToken",
        "label": "_owner",
        "offset": 0,
        "slot": "6",
        "type": "t_address"
      },
      {
        "astId": 9781,
        "contract": "src/CODEToken.sol:CODEToken",
        "label": "claimed",
        "offset": 0,
        "slot": "7",
        "type": "t_struct(BitMap)1566_storage"
      },
      {
        "astId": 9783,
        "contract": "src/CODEToken.sol:CODEToken",
        "label": "merkleRoot",
        "offset": 0,
        "slot": "8",
        "type": "t_bytes32"
      },
      {
        "astId": 9785,
        "contract": "src/CODEToken.sol:CODEToken",
        "label": "claimPeriodEnds",
        "offset": 0,
        "slot": "9",
        "type": "t_uint256"
      },
      {
        "astId": 9787,
        "contract": "src/CODEToken.sol:CODEToken",
        "label": "treasury",
        "offset": 0,
        "slot": "10",
        "type": "t_address"
      },
      {
        "astId": 9790,
        "contract": "src/CODEToken.sol:CODEToken",
        "label": "mintingEnabled",
        "offset": 20,
        "slot": "10",
        "type": "t_bool"
      }
    ],
    "types": {
      "t_address": {
        "encoding": "inplace",
        "label": "address",
        "numberOfBytes": "20"
      },
      "t_bool": {
        "encoding": "inplace",
        "label": "bool",
        "numberOfBytes": "1"
      },
      "t_bytes32": {
        "encoding": "inplace",
        "label": "bytes32",
        "numberOfBytes": "32"
      },
      "t_mapping(t_address,t_mapping(t_address,t_uint256))": {
        "encoding": "mapping",
        "key": "t_address",
        "label": "mapping(address => mapping(address => uint256))",
        "numberOfBytes": "32",
        "value": "t_mapping(t_address,t_uint256)"
      },
      "t_mapping(t_address,t_struct(Counter)985_storage)": {
        "encoding": "mapping",
        "key": "t_address",
        "label": "mapping(address => struct Counters.Counter)",
        "numberOfBytes": "32",
        "value": "t_struct(Counter)985_storage"
      },
      "t_mapping(t_address,t_uint256)": {
        "encoding": "mapping",
        "key": "t_address",
        "label": "mapping(address => uint256)",
        "numberOfBytes": "32",
        "value": "t_uint256"
      },
      "t_mapping(t_uint256,t_uint256)": {
        "encoding": "mapping",
        "key": "t_uint256",
        "label": "mapping(uint256 => uint256)",
        "numberOfBytes": "32",
        "value": "t_uint256"
      },
      "t_string_storage": {
        "encoding": "bytes",
        "label": "string",
        "numberOfBytes": "32"
      },
      "t_struct(BitMap)1566_storage": {
        "encoding": "inplace",
        "label": "struct BitMaps.BitMap",
        "members": [
          {
            "astId": 1565,
            "contract": "src/CODEToken.sol:CODEToken",
            "label": "_data",
            "offset": 0,
            "slot": "0",
            "type": "t_mapping(t_uint256,t_uint256)"
          }
        ],
        "numberOfBytes": "32"
      },
      "t_struct(Counter)985_storage": {
        "encoding": "inplace",
        "label": "struct Counters.Counter",
        "members": [
          {
            "astId": 984,
            "contract": "src/CODEToken.sol:CODEToken",
            "label": "_value",
            "offset": 0,
            "slot": "0",
            "type": "t_uint256"
          }
        ],
        "numberOfBytes": "32"
      },
      "t_uint256": {
        "encoding": "inplace",
        "label": "uint256",
        "numberOfBytes": "32"
      }
    }
  }
}